:020000040000FA
:020000000A28CC
:10000800FE00030EF0000A08F1007E280B28F80114
:10001800F901FA01FB018301A2287308803AFF0065
:1000280080307F02031D1A2808307202031C1D2825
:100038001E282128F201F301482883121F119F115D
:100048001F127208F40001300310F40DFF3E031D67
:1000580028280310740DF50075089F040630F50074
:100068003030F400F40B3628F50B362800008312E4
:100078009F149F18402841283D281E08F400F501C8
:100088007408F2007508F3000800703083168F00BA
:1000980007308312990083160514851085120715F9
:1000A80087158712073083129900E0308316910074
:1000B800193083129F00103083169F000730831277
:1000C8008300FF30920064309100FF308316920065
:1000D8000C30831295007830930012158B170B178C
:1000E8008B160B11831681120112811101158114CF
:1000F800011008000B1D812882289B280B11013054
:10010800F8070318F90A0030F9076430780679040B
:10011800031D8F2890289828F801F9010130FA0763
:100128000318FB0A0030FB07643083128100710852
:100138008A00700E8300FE0E7E0E0900492083128D
:1001480085120630F2000030F30011207308F70022
:100158007208F600760883129300A3280A28003054
:0C0168008A000408840A82070034643412
:02400E00E5309B
:00000001FF
